:020000040000FA
:100000000C945D000C9485000C9485000C94850084
:100010000C9485000C9485000C9485000C9485004C
:100020000C9485000C9485000C9485000C9485003C
:100030000C9485000C9485000C9485000C9485002C
:100040000C94CD060C9485000C949B060C947506BC
:100050000C9485000C9485000C9485000C9485000C
:100060000C9417070C948500000000002400270062
:100070002A0000000000250028002B0004040404CE
:100080000404040402020202020203030303030342
:10009000010204081020408001020408102001021F
:1000A00004081020000000080002010000030407FB
:1000B0000000000000000000360811241FBECFEF32
:1000C000D8E0DEBFCDBF11E0A0E0B1E0ECE1FAE1A5
:1000D00002C005900D92A23EB107D9F723E0A2EE2F
:1000E000B1E001C01D92A236B207E1F710E0CDE504
:1000F000D0E004C02197FE010E94060DCC35D10747
:10010000C9F70E946F080C940C0D0C940000089520
:100110000895AF92BF92CF92DF92EF92FF920F932A
:100120001F93CF93DF936C017B018B01040F151F8D
:10013000EB015E01AE18BF08C017D10759F06991F5
:10014000D601ED91FC910190F081E02DC601099559
:10015000892B79F7C501DF91CF911F910F91FF9006
:10016000EF90DF90CF90BF90AF900895FC01538D3A
:10017000448D252F30E0842F90E0821B930B541781
:1001800010F0CF96089501970895FC01918D828D0E
:10019000981761F0A28DAE0FBF2FB11D5D968C91A7
:1001A000928D9F5F9F73928F90E008958FEF9FEFE6
:1001B0000895FC01918D828D981731F0828DE80FA2
:1001C000F11D858D90E008958FEF9FEF0895FC015C
:1001D000918D228D892F90E0805C9F4F821B910929
:1001E0008F739927089589EB92E00E94E70021E040
:1001F000892B09F420E0822F089580E090E0892B7C
:1002000029F00E94F30081110C9400000895FC0174
:10021000A48DA80FB92FB11DA35ABF4F2C91848D67
:1002200090E001968F739927848FA689B7892C93C4
:10023000A089B1898C91837080648C93938D848D17
:10024000981306C00288F389E02D80818F7D80831A
:100250000895EF92FF920F931F93CF93DF93EC01DA
:1002600081E0888F9B8D8C8D98131AC0E889F9895D
:10027000808185FF15C09FB7F894EE89FF89608360
:10028000E889F98980818370806480839FBF81E0E1
:1002900090E0DF91CF911F910F91FF90EF90089523
:1002A000F62E0B8D10E00F5F1F4F0F731127E02EFE
:1002B0008C8D8E110CC00FB607FCFACFE889F98936
:1002C000808185FFF5CFCE010E940701F1CFEB8D34
:1002D000EC0FFD2FF11DE35AFF4FF0829FB7F8940A
:1002E0000B8FEA89FB8980818062CFCFCF93DF9328
:1002F000EC01888D8823B9F0AA89BB89E889F9893E
:100300008C9185FD03C0808186FD0DC00FB607FC72
:10031000F7CF8C9185FFF2CF808185FFEDCFCE01A5
:100320000E940701E9CFDF91CF91089590E0FC0191
:10033000EC55FF4F2491FC01E057FF4F3491FC0135
:10034000E458FF4FE491EE23C9F0222339F0233023
:1003500001F1A8F4213019F1223029F1F0E0EE0F7B
:10036000FF1FEE58FF4FA591B4918FB7F894EC9111
:10037000611126C030953E233C938FBF08952730EE
:10038000A9F02830C9F0243049F7809180008F7D92
:1003900003C0809180008F7780938000DFCF84B589
:1003A0008F7784BDDBCF84B58F7DFBCF8091B0008C
:1003B0008F778093B000D2CF8091B0008F7DF9CF3E
:1003C0003E2BDACFCF93DF9390E0FC01E057FF4F55
:1003D000249184589F4FFC0184918823D1F090E0B0
:1003E000880F991FFC01E859FF4FA591B491FC01BA
:1003F000EE58FF4FC591D491623071F49FB7F894D5
:100400003C91822F809583238C93E8812E2B288327
:100410009FBFDF91CF9108958FB7F894EC912E2B69
:100420002C938FBFF6CF1F93CF93DF93182FEB0141
:1004300061E00E94E201209739F460E0812FDF91B2
:10044000CF911F910C949601CF3FD10511F461E03B
:10045000F5CFE12FF0E0EC55FF4FE491E33031F1BF
:1004600040F4E130B1F0E230E1F0C038D1057CF782
:10047000E4CFE73029F1E83059F1E430B1F7809169
:100480008000806280938000D0938B00C0938A00AC
:1004900004C084B5806884BDC7BDDF91CF911F9132
:1004A000089584B5806284BDC8BDF7CF8091800077
:1004B000806880938000D0938900C0938800EDCF3E
:1004C0008091B00080688093B000C093B300E5CF06
:1004D0008091B00080628093B000C093B400DDCF03
:1004E0003FB7F89480912B0290912C02A0912D029D
:1004F000B0912E0226B5A89B05C02F3F19F001969A
:10050000A11DB11D3FBFBA2FA92F982F8827BC016D
:10051000CD01620F711D811D911D42E0660F771F95
:10052000881F991F4A95D1F708958F929F92AF9295
:10053000BF92CF92DF92EF92FF924B015C010E943B
:1005400070026B017C010E9470026C197D098E099A
:100550009F09683E734081059105A8F321E0821A46
:100560009108A108B10888EEC80E83E0D81EE11CEE
:10057000F11C81149104A104B10429F7FF90EF90BC
:10058000DF90CF90BF90AF909F908F900895209173
:100590000302260F3327331F21323105ECF420915B
:1005A0008F02FC0190E080E0243069F082E0089541
:1005B000A09103022191AC014D515E4FA40FB52FC4
:1005C000B11D2C930196861798F380910302680F52
:1005D0006093030280E0089581E0089510928F02F5
:1005E00081E080938E021092690261E082E10E94B4
:1005F000960161E083E10E949601E9EBF0E08081E1
:100600008E7F808380818D7F808388E48093B80093
:1006100085E48093BC000895CF93DF9391E090939D
:10062000E2018823B9F0C091B800D091BA0080915E
:10063000BC008A7B8093BC0060E082E10E9496014E
:1006400060E083E10E9496010E94EE02D093BA001E
:10065000C093B800DF91CF9108958F929F92AF928F
:10066000BF92CF92DF92EF92FF920F931F93CF939F
:10067000DF93D091B802D13208F0D7C0182FC091C3
:10068000B7020E9470026B017C0180918F02811180
:100690006BC082E080938F0210938E028FEF809365
:1006A0008D0210928C02D0938B02A7E9B2E0EBE6A8
:1006B000F2E080E0D81391C010926A0280916A0241
:1006C000CC0FC82BC0936A0280916902813009F077
:1006D00088C0109269020E9470026B017C018091B7
:1006E0006A028093BB008091910290919202A09146
:1006F0009302B0919402892B8A2B8B2BA1F00E943C
:100700007002009191021091920220919302309117
:1007100094026C197D098E099F090617170728078F
:10072000390708F442C08091BC0083FDD8CF85EC26
:100730008093BC000E9470026B017C0180918F024B
:10074000823009F450C080918D028F3F09F46FC050
:1007500080918D02803209F46CC080918D028033CB
:1007600009F469C084E026C08091910290919202C0
:10077000A0919302B0919402892B8A2B8B2B09F4C0
:1007800084CF0E9470028090910290909202A0907B
:100790009302B09094026C197D098E099F09861608
:1007A0009706A806B90608F070CF809190020E94C3
:1007B0000C0385E0109296021092B80210929502F6
:1007C000DF91CF911F910F91FF90EF90DF90CF902D
:1007D000BF90AF909F908F9008959D9191938F5F60
:1007E00069CF85EEA5CF8091910290919202A09160
:1007F0009302B0919402892B8A2B8B2B09F49ECF04
:100800000E94700200919102109192022091930235
:10081000309194026C197D098E099F0906171707FC
:100820002807390708F08ACFC0CF81E0C3CF80E026
:10083000C1CF82E0BFCF83E0BDCFCF92DF92EF92F6
:10084000FF920F931F93CF93DF93D82FC62F613260
:1008500008F098C00E9470026B017C0180918F02A9
:1008600081116BC081E080938F0280938E029FEF95
:1008700090938D0210928C029C0F90938B02809328
:100880006A0280916A02DD0FD82BD0936A028091B0
:100890006902813009F078C0109269020E947002EA
:1008A0006B017C0180916A028093BB008091910270
:1008B00090919202A0919302B0919402892B8A2B7D
:1008C0008B2BA1F00E947002009191021091920274
:1008D00020919302309194026C197D098E099F0931
:1008E000061717072807390708F448C08091BC008D
:1008F00083FDD8CF85EC8093BC000E9470026B0111
:100900007C0180918F02813009F440C080918C027B
:100910008C1710F4C0918C02EBE6F2E0A9E4B2E08F
:1009200080E08C1355C08C2FDF91CF911F910F91D8
:10093000FF90EF90DF90CF90089580919102909179
:100940009202A0919302B0919402892B8A2B8B2B57
:1009500009F484CF0E9470020091910210919202DA
:1009600020919302309194026C197D098E099F09A0
:10097000061717072807390708F070CF80919002F3
:100980000E940C03C0E0CFCF85EEB5CF80919102DD
:1009900090919202A0919302B0919402892B8A2B9C
:1009A0008B2B09F4AECF0E9470020091910210913E
:1009B000920220919302309194026C197D098E0964
:1009C0009F09061717072807390708F09ACFD6CFCF
:1009D00091919D938F5FA5CF0895E091340280910E
:1009E0003302E81730F4F0E0E75BFD4F808190E0E0
:1009F00008958FEF9FEF0895909134028091330214
:100A00002FEF3FEF981748F4E92FF0E0E75BFD4F39
:100A1000208130E09F5F90933402C9010895809156
:100A2000330290913402891B990B0895CF92DF9283
:100A3000EF92FF920F931F93CF93DF937C01CB0133
:100A40008A0120919502222389F0EB016B01C40EEB
:100A5000D51ECC15DD0569F06991D701ED91FC91AA
:100A60000190F081E02DC7010995F3CF642F0E941A
:100A7000C702C801DF91CF911F910F91FF90EF90B6
:100A8000DF90CF900895CF93DF931F92CDB7DEB75D
:100A90006983209195022223F9F02091B802203237
:100AA00058F021E030E0FC013383228390E080E0C5
:100AB0000F90DF91CF91089580919602E82FF0E09A
:100AC000E956FD4F998190838F5F809396028093C2
:100AD000B80281E090E0ECCF61E0CE0101960E9487
:100AE000C702F7CF90E080E00895CF93C62F909192
:100AF000000121E0209395029093B7021092960294
:100B00001092B802682F86E593E00E9443056C2F8F
:100B100086E593E00E94430581E0CF910C942D037C
:100B20008F929F92AF92BF920F931F93CF93DF93B9
:100B3000CDB7DEB7A1970FB6F894DEBF0FBECDBF1D
:100B400019A2423008F44AE08E010F5D1F4F842E37
:100B5000912CB12CA12CA50194010E94E40CE62F4C
:100B6000B901CA01EA3044F5E05DD801EE938D0188
:100B7000232B242B252B79F790E080E0109769F048
:100B8000FD0101900020E9F73197AF014A1B5B0B93
:100B9000BD0189EB92E00E948900A1960FB6F894FE
:100BA000DEBF0FBECDBFDF91CF911F910F91BF90E0
:100BB000AF909F908F900895E95CD7CFFC01019092
:100BC0000020E9F73197AF01481B590BBC0189EBB5
:100BD00092E00C948900CF93DF93C091000191E0E3
:100BE00090939502C093B702109296021092B802A9
:100BF000682F86E593E00E94430581E00E942D0363
:100C000062E08C2F0E941D04109234028093330204
:100C100086E593E00E94FC04EC0186E593E00E94E7
:100C2000FC0420E0382FCE01822B932BDF91CF9153
:100C30000895CF93C091000191E090939502C093E5
:100C4000B702109296021092B802682F86E593E0E0
:100C50000E94430581E00E942D0361E08C2F0E94D9
:100C60001D041092340280933302882321F086E51C
:100C700093E00E94FC04CF91089585ED8093BC0021
:100C80008091910290919202A0919302B09194026E
:100C90000796A11DB11D23E0B695A7959795879559
:100CA0002A95D1F72091BC0024FD03C010928F0239
:100CB0000895409191025091920260919302709137
:100CC0009402452B462B472B69F30097A105B105EC
:100CD00041F02AE22A95F1F700C00197A109B10974
:100CE000E1CF809190020C940C031F920F920FB6EB
:100CF0000F9211242F933F934F935F936F937F93A2
:100D00008F939F93AF93BF93EF93FF9389EB92E001
:100D10000E940701FF91EF91BF91AF919F918F9139
:100D20007F916F915F914F913F912F910F900FBEE7
:100D30000F901F9018951F920F920FB60F921124CB
:100D40002F938F939F93EF93FF93E091C902F091BC
:100D5000CA028081E091CF02F091D00282FD1BC0D7
:100D600090818091D2028F5F8F732091D30282177E
:100D700041F0E091D202F0E0E754FD4F958F80936F
:100D8000D202FF91EF919F918F912F910F900FBE03
:100D90000F901F9018958081F4CF1F920F920FB67D
:100DA0000F9211242F933F938F939F93AF93BF93F1
:100DB0008091270290912802A0912902B0912A02E5
:100DC0003091260223E0230F2D3758F50196A11DFF
:100DD000B11D209326028093270290932802A093AE
:100DE0002902B0932A0280912B0290912C02A091AB
:100DF0002D02B0912E020196A11DB11D80932B02F0
:100E000090932C02A0932D02B0932E02BF91AF912C
:100E10009F918F913F912F910F900FBE0F901F9038
:100E2000189526E8230F0296A11DB11DD2CF1F925F
:100E30000F920FB60F9211242F933F934F935F930E
:100E40006F937F938F939F93AF93BF93EF93FF9392
:100E50008091B900887F803609F44AC0F0F5883265
:100E600009F4A7C018F5803109F49BC0B8F48823B1
:100E700009F4F9C0883009F494C0FF91EF91BF9153
:100E8000AF919F918F917F916F915F914F913F9122
:100E90002F910F900FBE0F901F901895883109F475
:100EA00088C0803251F780938D0214C0803409F4D9
:100EB0009DC040F48033B9F38833F9F680938D02F6
:100EC00085ECB0C0803509F485C0883509F496C03A
:100ED000883499F60E943D06D0CF883909F48CC039
:100EE00038F5883729F050F4883611F0803729F624
:100EF00083E080938F021092250257C0883809F44E
:100F00007BC0803919F0803809F0B7CF8091250275
:100F1000803208F071C0E091250281E08E0F80934D
:100F200025028091BB00F0E0EB5FFD4F80833DC068
:100F3000803B39F0E0F4803A09F479C0883A09F04E
:100F40009CCF84E080938F021092040210920302DF
:100F5000E0913102F09132020995809103028111F2
:100F60000FC081E0809303021092E30109C0803C2E
:100F700009F4A6CF883C09F4A3CF883B09F07DCFC4
:100F8000E091040281E08E0F80930402F0E0ED51C5
:100F9000FE4F80818093BB009091040280910302F8
:100FA00029C080916A028093BB0085EC8093BC00CD
:100FB00064CF90918C0280918B02981758F5E09144
:100FC0008C0281E08E0F80938C02F0E0E559FD4F9A
:100FD0008081E9CFE0918C0281E08E0F80938C02BA
:100FE0008091BB00F0E0E559FD4F808390918C0229
:100FF00080918B029817C8F285E8D8CFE0918C02D7
:1010000081E08E0F80938C028091BB00F0E0E55967
:10101000FD4F808380918E0281115CCF81E08093AF
:10102000690284EA8093BC0010928F0226CF85EC7F
:101030008093BC0010928F0280912502803230F4A0
:10104000E0912502F0E0EB5FFD4F108260912502F8
:1010500070E0E0912F02F091300285E092E0099576
:10106000109225020ACF10928D0234CFE9EBF2E004
:101070001382128288EE93E0A0E0B0E0848395832F
:10108000A683B78327E031E03183208325EC30E06D
:101090003587248724EC30E03787268720EC30E042
:1010A000318B208B21EC30E0338B228B22EC30E033
:1010B000358B248B26EC30E0378B268B118E128EED
:1010C000138E148EE6E5F3E01382128284839583F7
:1010D000A683B78389E191E0918380830895CF93BC
:1010E000DF93CDB7DEB768970FB6F894DEBF0FBEBB
:1010F000CDBF789484B5826084BD84B5816084BDA1
:1011000085B5826085BD85B5816085BD80916E00A5
:10111000816080936E0010928100809181008260D6
:101120008093810080918100816080938100809113
:1011300080008160809380008091B1008460809302
:10114000B1008091B00081608093B00080917A00FE
:10115000846080937A0080917A00826080937A0024
:1011600080917A00816080937A0080917A00806813
:1011700080937A001092C10061E086E00E94E20153
:1011800062E085E00E94E201E091C902F091CA02AA
:1011900082E08083E091C502F091C6021082E09166
:1011A000C702F091C80280E180831092D102E091E1
:1011B000CD02F091CE0286E08083E091CB02F091E7
:1011C000CC02808180618083E091CB02F091CC02DF
:1011D000808188608083E091CB02F091CC02808195
:1011E00080688083E091CB02F091CC0280818F7D7A
:1011F0008083109234021092330210929602109261
:10120000B8020E94EE0287E890E090933202809349
:10121000310288E890E09093300280932F0289E2B7
:101220008093000182E90E941906843409F47EC08B
:101230008D3409F47BC087E291E00E94DE0589E4E9
:1012400091E00E94DE0561E083E00E94E20161E03E
:1012500085E00E94E20161E086E00E94E20161E037
:1012600089E00E94E20161E08AE00E94E20161E01F
:101270008BE00E94E20160E083E00E94960160E062
:1012800085E00E94960160E086E00E94960121EED2
:10129000222E312C84EB0E94EB055C0186EB0E9430
:1012A000EB056C0188EB0E94EB058C018AEB0E9438
:1012B000EB057C018091350290913602853D9105C8
:1012C00009F493C008F076C0009709F498C0803CF8
:1012D000910509F48FC0D0924202C092410210934E
:1012E000440200934302F0924602E0924502B0921B
:1012F0004802A092470288E0E1E4F2E0DE01519664
:1013000001900D928A95E1F7C016D10608F47CC0D1
:10131000C601CE14DF0408F07CC00C151D0508F4CE
:10132000DDC10E151F0508F073C09EC160EC81E899
:101330000E94750580EC90E0909336028093350210
:1013400063E08FE80E9475056FEF84E80E947505E1
:1013500060E085E80E94750560E086E80E947505FA
:101360006FEF87E80E94750562E08CE80E947505C2
:1013700061E080E80E94750563E070E080E090E045
:101380000E94950263E080E80E94750563E070E0CA
:1013900080E090E00E94950280E80E941906682F84
:1013A000606180E80E94750566E670E086E00E9454
:1013B000130245CF863F910599F08F3F910549F083
:1013C0008B3E910509F087CF62E370E080E090E00A
:1013D00004C063E070E080E090E00E9495027BCF63
:1013E00068E170E080E090E0F8CF65E670E080E0D2
:1013F00090E0F3CF6AE970E080E090E0EECF6CEB34
:1014000072E080E090E0E9CF0E151F0508F429C1D5
:10141000C8016FEF70E00E94D00C6F5F7F4F90E0CB
:1014200080E00E941E0C2B013C0120E030E0A9016D
:101430000E94780B970158014601882321F1B601DB
:1014400090E080E00E941E0CA30192010E947D0B9F
:101450000E94EF0B4B01B80190E080E00E941E0C4F
:10146000A30192010E947D0B0E94EF0B5B01B7016B
:1014700090E080E00E941E0CA30192010E947D0B6F
:101480000E94EF0B9B014FE18416910418F05EE17E
:10149000851A91088FE1A816B10418F09EE1A91AE7
:1014A000B1082F31310510F02E5131094FEF489D11
:1014B000C001499D900D1124B1010E94D00CF62F5E
:1014C000E72F4A9DC0014B9D900D1124B1010E9450
:1014D000D00CB62E472F5FEF529FC001539F900D47
:1014E0001124B1010E94D00C8F2F9E2F8F3F9105A8
:1014F00019F010F08FEF90E09A8B898B8B2D942F41
:101500008F3F910519F010F08FEF90E09C8B8B8B43
:10151000CB016F3F710519F010F08FEF90E09E8BBB
:101520008D8B88E0FE017196DE01119601900D927F
:101530008A95E1F788E0FE013196DE011996019067
:101540000D928A95E1F788E0FE013996A9E3B2E0B1
:1015500001900D928A95E1F78DE691E00E94DE05FB
:10156000B60190E080E04AE00E94900582E791E0B9
:101570000E94DE05B80190E080E04AE00E949005FC
:1015800088E791E00E94DE05B70190E080E04AE044
:101590000E94900586E491E00E94DE05E0903B0207
:1015A000F0903C0200913D0210913E0260913902A0
:1015B00070913A0289E00E941302B7018AE00E940A
:1015C0001302B8018BE00E94130289EB92E00E94A3
:1015D000E7001816190644F489EB92E00E94C50052
:1015E00090933802809337028091370290913802AD
:1015F0008C010053110909301105C0F585E0000F79
:10160000111F8A95E1F7011581E0180711F40FEF1A
:1016100010E08EE791E00E94DE05B801012E000C7B
:10162000880B990B4AE00E94900587E491E00E94A4
:10163000DE05B801809101010E94130264EF71E0A0
:1016400080E090E00E94950280E090E0892B09F410
:1016500021CE0E94F300882309F419CE0E940000D5
:1016600016CEEC14FD04E8F1C701D3CE8736910500
:1016700021F18237910581F082369105F9F689ECE6
:1016800091E00E94DE0570E060E0809101010E941F
:10169000130246E050E00CC087E991E00E94DE05AD
:1016A00070E060E0809101010E94130243E050E08D
:1016B0005093020140930101C1CF8FEA91E00E9453
:1016C000DE0570E060E0809101010E94130285E078
:1016D00090E09093020180930101B0CFE016F106F3
:1016E00018F6412C512C90E8692E9FE3792EA7CE55
:1016F0000E945B0C08F481E008950E94910B0C9409
:10170000960C0E948F0C58F00E94880C40F029F42F
:101710005F3F29F00C947F0C51110C94CA0C0C946F
:10172000850C0E94A70C68F39923B1F3552391F31C
:10173000951B550BBB27AA2762177307840738F040
:101740009F5F5F4F220F331F441FAA1FA9F335D09D
:101750000E2E3AF0E0E832D091505040E695001C51
:10176000CAF72BD0FE2F29D0660F771F881FBB1F0B
:10177000261737074807AB07B0E809F0BB0B802DE9
:10178000BF01FF2793585F4F3AF09E3F510578F015
:101790000C947F0C0C94CA0C5F3FE4F3983ED4F396
:1017A000869577956795B795F7959F5FC9F7880FE9
:1017B000911D9695879597F90895E1E0660F771F3B
:1017C000881FBB1F621773078407BA0720F0621BCC
:1017D000730B840BBA0BEE1F88F7E09508950E94F7
:1017E000AF0C88F09F5798F0B92F9927B751B0F0F8
:1017F000E1F0660F771F881F991F1AF0BA95C9F795
:1018000014C0B13091F00E94C90CB1E008950C945D
:10181000C90C672F782F8827B85F39F0B93FCCF310
:10182000869577956795B395D9F73EF49095809511
:10183000709561957F4F8F4F9F4F0895E89409C031
:1018400097FB3EF490958095709561957F4F8F4FF3
:101850009F4F9923A9F0F92F96E9BB279395F69509
:10186000879577956795B795F111F8CFFAF4BB0F87
:1018700011F460FF1BC06F5F7F4F8F4F9F4F16C0EB
:10188000882311F096E911C0772321F09EE8872F75
:10189000762F05C0662371F096E8862F70E060E031
:1018A0002AF09A95660F771F881FDAF7880F9695AA
:1018B000879597F90895990F0008550FAA0BE0E84E
:1018C000FEEF16161706E807F907C0F01216130602
:1018D000E407F50798F0621B730B840B950B39F442
:1018E0000A2661F0232B242B252B21F408950A26A8
:1018F00009F4A140A6958FEF811D811D089597F9E8
:101900009F6780E870E060E008959FEF80EC0895A5
:1019100000240A94161617061806090608950024CE
:101920000A9412161306140605060895092E039448
:10193000000C11F4882352F0BB0F40F4BF2B11F4BC
:1019400060FF04C06F5F7F4F8F4F9F4F089557FD1B
:101950009058440F551F59F05F3F71F04795880F1D
:1019600097FB991F61F09F3F79F0879508951216B4
:1019700013061406551FF2CF4695F1DF08C0161660
:1019800017061806991FF1CF869571056105089411
:101990000895E894BB2766277727CB0197F9089528
:1019A000AA1BBB1B51E107C0AA1FBB1FA617B70785
:1019B00010F0A61BB70B881F991F5A95A9F78095A1
:1019C0009095BC01CD010895A1E21A2EAA1BBB1B64
:1019D000FD010DC0AA1FBB1FEE1FFF1FA217B307FB
:1019E000E407F50720F0A21BB30BE40BF50B661F11
:1019F000771F881F991F1A9469F7609570958095D5
:101A000090959B01AC01BD01CF010895EE0FFF1F22
:101A10000590F491E02D0994F894FFCF290300007C
:101A200000000029018900B6007601E700C500D951
:101A30000000000000430516057205EC040F05FCCC
:101A400004ED04544353333437323520696E6974DE
:101A500069616C697A6174696F6E206572726F7208
:101A600021210D0A00544353333437323520696E37
:101A7000697469616C697A6174696F6E20737563EA
:101A80006365737321210D0A0052203D2000204719
:101A9000203D20002042203D20000A6368616E67DF
:101AA000696E67206272696768746E65737320740B
:101AB0006F20000A6368616E67696E6720636F6CF0
:101AC0006F7220746F207265640A000A6368616E29
:101AD00067696E6720636F6C6F7220746F20677226
:101AE00065656E0A000A6368616E67696E672063E8
:0E1AF0006F6C6F7220746F20626C75650A0057
:107E0000112484B714BE81FFF0D085E080938100F7
:107E100082E08093C00088E18093C10086E0809377
:107E2000C20080E18093C4008EE0C9D0259A86E02C
:107E300020E33CEF91E0309385002093840096BBD3
:107E4000B09BFECF1D9AA8958150A9F7CC24DD24C4
:107E500088248394B5E0AB2EA1E19A2EF3E0BF2EE7
:107E6000A2D0813461F49FD0082FAFD0023811F036
:107E7000013811F484E001C083E08DD089C08234E0
:107E800011F484E103C0853419F485E0A6D080C0E4
:107E9000853579F488D0E82EFF2485D0082F10E0AE
:107EA000102F00270E291F29000F111F8ED06801E7
:107EB0006FC0863521F484E090D080E0DECF843638
:107EC00009F040C070D06FD0082F6DD080E0C81688
:107ED00080E7D80618F4F601B7BEE895C0E0D1E017
:107EE00062D089930C17E1F7F0E0CF16F0E7DF06D8
:107EF00018F0F601B7BEE89568D007B600FCFDCFD4
:107F0000A601A0E0B1E02C9130E011968C91119780
:107F100090E0982F8827822B932B1296FA010C0160
:107F200087BEE89511244E5F5F4FF1E0A038BF0790
:107F300051F7F601A7BEE89507B600FCFDCF97BE46
:107F4000E89526C08437B1F42ED02DD0F82E2BD052
:107F50003CD0F601EF2C8F010F5F1F4F84911BD097
:107F6000EA94F801C1F70894C11CD11CFA94CF0C13
:107F7000D11C0EC0853739F428D08EE10CD085E9AC
:107F80000AD08FE07ACF813511F488E018D01DD067
:107F900080E101D065CF982F8091C00085FFFCCF94
:107FA0009093C60008958091C00087FFFCCF809118
:107FB000C00084FD01C0A8958091C6000895E0E648
:107FC000F0E098E1908380830895EDDF803219F02E
:107FD00088E0F5DFFFCF84E1DECF1F93182FE3DFCA
:107FE0001150E9F7F2DF1F91089580E0E8DFEE27F6
:047FF000FF270994CA
:027FFE00040479
:00000001FF
