:020000040000FA
:100000000C945D000C9485000C9485000C94850084
:100010000C9485000C9485000C9485000C9485004C
:100020000C9485000C9485000C9485000C9485003C
:100030000C9485000C9485000C9485000C9485002C
:100040000C94CD060C9485000C949B060C947506BC
:100050000C9485000C9485000C9485000C9485000C
:100060000C9417070C948500000000002400270062
:100070002A0000000000250028002B0004040404CE
:100080000404040402020202020203030303030342
:10009000010204081020408001020408102001021F
:1000A00004081020000000080002010000030407FB
:1000B0000000000000000000360811241FBECFEF32
:1000C000D8E0DEBFCDBF11E0A0E0B1E0E4EAFCE1A2
:1000D00002C005900D92A238B107D9F725E0A2E839
:1000E000B1E001C01D92AB32B207E1F710E0CDE5FF
:1000F000D0E004C02197FE010E94250DCC35D10728
:10010000C9F70E94FA080C94500E0C940000089550
:100110000895AF92BF92CF92DF92EF92FF920F932A
:100120001F93CF93DF936C017B018B01040F151F8D
:10013000EB015E01AE18BF08C017D10759F06991F5
:10014000D601ED91FC910190F081E02DC601099559
:10015000892B79F7C501DF91CF911F910F91FF9006
:10016000EF90DF90CF90BF90AF900895FC01538D3A
:10017000448D252F30E0842F90E0821B930B541781
:1001800010F0CF96089501970895FC01918D828D0E
:10019000981761F0A28DAE0FBF2FB11D5D968C91A7
:1001A000928D9F5F9F73928F90E008958FEF9FEFE6
:1001B0000895FC01918D828D981731F0828DE80FA2
:1001C000F11D858D90E008958FEF9FEF0895FC015C
:1001D000918D228D892F90E0805C9F4F821B910929
:1001E0008F739927089587E592E00E94E70021E048
:1001F000892B09F420E0822F089580E090E0892B7C
:1002000029F00E94F30081110C9400000895FC0174
:10021000A48DA80FB92FB11DA35ABF4F2C91848D67
:1002200090E001968F739927848FA689B7892C93C4
:10023000A089B1898C91837080648C93938D848D17
:10024000981306C00288F389E02D80818F7D80831A
:100250000895EF92FF920F931F93CF93DF93EC01DA
:1002600081E0888F9B8D8C8D98131AC0E889F9895D
:10027000808185FF15C09FB7F894EE89FF89608360
:10028000E889F98980818370806480839FBF81E0E1
:1002900090E0DF91CF911F910F91FF90EF90089523
:1002A000F62E0B8D10E00F5F1F4F0F731127E02EFE
:1002B0008C8D8E110CC00FB607FCFACFE889F98936
:1002C000808185FFF5CFCE010E940701F1CFEB8D34
:1002D000EC0FFD2FF11DE35AFF4FF0829FB7F8940A
:1002E0000B8FEA89FB8980818062CFCFCF93DF9328
:1002F000EC01888D8823B9F0AA89BB89E889F9893E
:100300008C9185FD03C0808186FD0DC00FB607FC72
:10031000F7CF8C9185FFF2CF808185FFEDCFCE01A5
:100320000E940701E9CFDF91CF91089590E0FC0191
:10033000EC55FF4F2491FC01E057FF4F3491FC0135
:10034000E458FF4FE491EE23C9F0222339F0233023
:1003500001F1A8F4213019F1223029F1F0E0EE0F7B
:10036000FF1FEE58FF4FA591B4918FB7F894EC9111
:10037000611126C030953E233C938FBF08952730EE
:10038000A9F02830C9F0243049F7809180008F7D92
:1003900003C0809180008F7780938000DFCF84B589
:1003A0008F7784BDDBCF84B58F7DFBCF8091B0008C
:1003B0008F778093B000D2CF8091B0008F7DF9CF3E
:1003C0003E2BDACFCF93DF9390E0FC01E057FF4F55
:1003D000249184589F4FFC0184918823D1F090E0B0
:1003E000880F991FFC01E859FF4FA591B491FC01BA
:1003F000EE58FF4FC591D491623071F49FB7F894D5
:100400003C91822F809583238C93E8812E2B288327
:100410009FBFDF91CF9108958FB7F894EC912E2B69
:100420002C938FBFF6CF1F93CF93DF93182FEB0141
:1004300061E00E94E201209739F460E0812FDF91B2
:10044000CF911F910C949601CF3FD10511F461E03B
:10045000F5CFE12FF0E0EC55FF4FE491E33031F1BF
:1004600040F4E130B1F0E230E1F0C038D1057CF782
:10047000E4CFE73029F1E83059F1E430B1F7809169
:100480008000806280938000D0938B00C0938A00AC
:1004900004C084B5806884BDC7BDDF91CF911F9132
:1004A000089584B5806284BDC8BDF7CF8091800077
:1004B000806880938000D0938900C0938800EDCF3E
:1004C0008091B00080688093B000C093B300E5CF06
:1004D0008091B00080628093B000C093B400DDCF03
:1004E0003FB7F8948091CB019091CC01A091CD01C0
:1004F000B091CE0126B5A89B05C02F3F19F00196FB
:10050000A11DB11D3FBFBA2FA92F982F8827BC016D
:10051000CD01620F711D811D911D42E0660F771F95
:10052000881F991F4A95D1F708958F929F92AF9295
:10053000BF92CF92DF92EF92FF924B015C010E943B
:1005400070026B017C010E9470026C197D098E099A
:100550009F09683E734081059105A8F321E0821A46
:100560009108A108B10888EEC80E83E0D81EE11CEE
:10057000F11C81149104A104B10429F7FF90EF90BC
:10058000DF90CF90BF90AF909F908F900895209173
:10059000A301260F3327331F21323105ECF42091BC
:1005A0002D02FC0190E080E0243069F082E00895A3
:1005B000A091A3012191AC014D575E4FA40FB52F1F
:1005C000B11D2C930196861798F38091A301680FB3
:1005D0006093A30180E0089581E0089510922D02B8
:1005E00081E080932C021092070261E082E10E9478
:1005F000960161E083E10E949601E9EBF0E08081E1
:100600008E7F808380818D7F808388E48093B80093
:1006100085E48093BC000895CF93DF9391E090939D
:1006200082018823B9F0C091B800D091BA008091BE
:10063000BC008A7B8093BC0060E082E10E9496014E
:1006400060E083E10E9496010E94EE02D093BA001E
:10065000C093B800DF91CF9108958F929F92AF928F
:10066000BF92CF92DF92EF92FF920F931F93CF939F
:10067000DF93D0915602D13208F0D7C0182FC09125
:1006800055020E9470026B017C0180912D02811144
:100690006BC082E080932D0210932C028FEF809329
:1006A0002B0210922A02D0932902A5E3B2E0E9E0DE
:1006B000F2E080E0D81391C0109208028091080205
:1006C000CC0FC82BC093080280910702813009F03B
:1006D00088C0109207020E9470026B017C01809119
:1006E00008028093BB0080912F0290913002A0916C
:1006F0003102B0913202892B8A2B8B2BA1F00E9400
:10070000700200912F02109130022091310230913D
:1007100032026C197D098E099F09061717072807F1
:10072000390708F442C08091BC0083FDD8CF85EC26
:100730008093BC000E9470026B017C0180912D02AD
:10074000823009F450C080912B028F3F09F46FC0B2
:1007500080912B02803209F46CC080912B0280338F
:1007600009F469C084E026C080912F029091300284
:10077000A0913102B0913202892B8A2B8B2B09F484
:1007800084CF0E94700280902F0290903002A0903F
:100790003102B09032026C197D098E099F098616CC
:1007A0009706A806B90608F070CF80912E020E9425
:1007B0000C0385E01092340210925602109233021C
:1007C000DF91CF911F910F91FF90EF90DF90CF902D
:1007D000BF90AF909F908F9008959D9191938F5F60
:1007E00069CF85EEA5CF80912F0290913002A09124
:1007F0003102B0913202892B8A2B8B2B09F49ECFC8
:100800000E94700200912F0210913002209131025B
:10081000309132026C197D098E099F09061717075E
:100820002807390708F08ACFC0CF81E0C3CF80E026
:10083000C1CF82E0BFCF83E0BDCFCF92DF92EF92F6
:10084000FF920F931F93CF93DF93D82FC62F613260
:1008500008F098C00E9470026B017C0180912D020B
:1008600081116BC081E080932D0280932C029FEF59
:1008700090932B0210922A029C0F9093290280934E
:10088000080280910802DD0FD82BD09308028091D6
:100890000702813009F078C0109207020E947002AE
:1008A0006B017C01809108028093BB0080912F0234
:1008B00090913002A0913102B0913202892B8A2BA3
:1008C0008B2BA1F00E94700200912F021091300238
:1008D00020913102309132026C197D098E099F09F5
:1008E000061717072807390708F448C08091BC008D
:1008F00083FDD8CF85EC8093BC000E9470026B0111
:100900007C0180912D02813009F440C080912A023F
:100910008C1710F4C0912A02E9E0F2E0A7EEB1E0F2
:1009200080E08C1355C08C2FDF91CF911F910F91D8
:10093000FF90EF90DF90CF90089580912F029091DB
:100940003002A0913102B0913202892B8A2B8B2B7D
:1009500009F484CF0E94700200912F02109130029E
:1009600020913102309132026C197D098E099F0964
:10097000061717072807390708F070CF80912E0255
:100980000E940C03C0E0CFCF85EEB5CF80912F023F
:1009900090913002A0913102B0913202892B8A2BC2
:1009A0008B2B09F4AECF0E94700200912F021091A0
:1009B000300220913102309132026C197D098E098A
:1009C0009F09061717072807390708F09ACFD6CFCF
:1009D00091919D938F5FA5CF0895E091D40180916F
:1009E000D301E81730F4F0E0E951FE4F808190E048
:1009F00008958FEF9FEF08959091D4018091D301D6
:100A00002FEF3FEF981748F4E92FF0E0E951FE4F40
:100A1000208130E09F5F9093D401C90108958091B7
:100A2000D3019091D401891B990B0895CF92DF9245
:100A3000EF92FF920F931F93CF93DF937C01CB0133
:100A40008A0120913302222389F0EB016B01C40E4D
:100A5000D51ECC15DD0569F06991D701ED91FC91AA
:100A60000190F081E02DC7010995F3CF642F0E941A
:100A7000C702C801DF91CF911F910F91FF90EF90B6
:100A8000DF90CF900895CF93DF931F92CDB7DEB75D
:100A90006983209133022223F9F0209156022032FB
:100AA00058F021E030E0FC013383228390E080E0C5
:100AB0000F90DF91CF91089580913402E82FF0E0FC
:100AC000EB5CFD4F998190838F5F8093340280931C
:100AD000560281E090E0ECCF61E0CE0101960E94E9
:100AE000C702F7CF90E080E00895CF93C62F909192
:100AF000000121E0209333029093550210923402BA
:100B000010925602682F8AEF92E00E9443056C2FE4
:100B10008AEF92E00E94430581E0CF910C942D036F
:100B20008F929F92AF92BF920F931F93CF93DF93B9
:100B3000CDB7DEB7A1970FB6F894DEBF0FBECDBF1D
:100B400019A2423008F44AE08E010F5D1F4F842E37
:100B5000912CB12CA12CA50194010E94030DE62F2C
:100B6000B901CA01EA3044F5E05DD801EE938D0188
:100B7000232B242B252B79F790E080E0109769F048
:100B8000FD0101900020E9F73197AF014A1B5B0B93
:100B9000BD0187E592E00E948900A1960FB6F89406
:100BA000DEBF0FBECDBFDF91CF911F910F91BF90E0
:100BB000AF909F908F900895E95CD7CFFC01019092
:100BC0000020E9F73197AF01481B590BBC0187E5BD
:100BD00092E00C948900CF93DF93C091000191E0E3
:100BE00090933302C0935502109234021092560231
:100BF000682F8AEF92E00E94430581E00E942D0356
:100C000062E08C2F0E941D041092D4018093D301C6
:100C10008AEF92E00E94FC04EC018AEF92E00E94CD
:100C2000FC0420E0382FCE01822B932BDF91CF9153
:100C30000895CF93C091000191E090933302C09347
:100C400055021092340210925602682F8AEF92E0F9
:100C50000E94430581E00E942D0361E08C2F0E94D9
:100C60001D041092D4018093D301882321F08AEFD0
:100C700092E00E94FC04CF91089585ED8093BC0022
:100C800080912F0290913002A0913102B0913202F6
:100C90000796A11DB11D23E0B695A7959795879559
:100CA0002A95D1F72091BC0024FD03C010922D029B
:100CB000089540912F02509130026091310270915D
:100CC0003202452B462B472B69F30097A105B1054E
:100CD00041F02AE22A95F1F700C00197A109B10974
:100CE000E1CF80912E020C940C031F920F920FB64D
:100CF0000F9211242F933F934F935F936F937F93A2
:100D00008F939F93AF93BF93EF93FF9387E592E009
:100D10000E940701FF91EF91BF91AF919F918F9139
:100D20007F916F915F914F913F912F910F900FBEE7
:100D30000F901F9018951F920F920FB60F921124CB
:100D40002F938F939F93EF93FF93E0916702F0911E
:100D500068028081E0916D02F0916E0282FD1BC0FD
:100D60009081809170028F5F8F7320917102821742
:100D700041F0E0917002F0E0E95AFD4F958F8093C9
:100D80007002FF91EF919F918F912F910F900FBE65
:100D90000F901F9018958081F4CF1F920F920FB67D
:100DA0000F9211242F933F938F939F93AF93BF93F1
:100DB0008091C7019091C801A091C901B091CA0169
:100DC0003091C60123E0230F2D3758F50196A11D60
:100DD000B11D2093C6018093C7019093C801A093D1
:100DE000C901B093CA018091CB019091CC01A0912F
:100DF000CD01B091CE010196A11DB11D8093CB0113
:100E00009093CC01A093CD01B093CE01BF91AF914F
:100E10009F918F913F912F910F900FBE0F901F9038
:100E2000189526E8230F0296A11DB11DD2CF1F925F
:100E30000F920FB60F9211242F933F934F935F930E
:100E40006F937F938F939F93AF93BF93EF93FF9392
:100E50008091B900887F803609F44AC0F0F5883265
:100E600009F4A7C018F5803109F49BC0B8F48823B1
:100E700009F4F9C0883009F494C0FF91EF91BF9153
:100E8000AF919F918F917F916F915F914F913F9122
:100E90002F910F900FBE0F901F901895883109F475
:100EA00088C0803251F780932B0214C0803409F43B
:100EB0009DC040F48033B9F38833F9F680932B0258
:100EC00085ECB0C0803509F485C0883509F496C03A
:100ED000883499F60E943D06D0CF883909F48CC039
:100EE00038F5883729F050F4883611F0803729F624
:100EF00083E080932D021092C50157C0883809F411
:100F00007BC0803919F0803809F0B7CF8091C501D6
:100F1000803208F071C0E091C50181E08E0F8093AE
:100F2000C5018091BB00F0E0EB55FE4F80833DC0D2
:100F3000803B39F0E0F4803A09F479C0883A09F04E
:100F40009CCF84E080932D021092A4011092A30103
:100F5000E091D101F091D20109958091A301811115
:100F60000FC081E08093A3011092830109C0803CEF
:100F700009F4A6CF883C09F4A3CF883B09F07DCFC4
:100F8000E091A40181E08E0F8093A401F0E0ED5781
:100F9000FE4F80818093BB009091A4018091A301BA
:100FA00029C0809108028093BB0085EC8093BC002F
:100FB00064CF90912A0280912902981758F5E09108
:100FC0002A0281E08E0F80932A02F0E0E75FFD4F56
:100FD0008081E9CFE0912A0281E08E0F80932A027E
:100FE0008091BB00F0E0E75FFD4F808390912A0283
:100FF000809129029817C8F285E8D8CFE0912A029B
:1010000081E08E0F80932A028091BB00F0E0E75FC1
:10101000FD4F808380912C0281115CCF81E0809311
:10102000070284EA8093BC0010922D0226CF85EC43
:101030008093BC0010922D028091C501803230F463
:10104000E091C501F0E0EB55FE4F10826091C501C3
:1010500070E0E091CF01F091D00185EA91E009952F
:101060001092C5010ACF10922B0234CF10925A026F
:101070001092590288EE93E0A0E0B0E080935B020A
:1010800090935C02A0935D02B0935E028BE091E0CE
:10109000909358028093570285EC90E090936402FD
:1010A0008093630284EC90E09093660280936502E3
:1010B00080EC90E0909368028093670281EC90E06E
:1010C00090936A028093690282EC90E090936C02A4
:1010D00080936B0286EC90E090936E0280936D0299
:1010E00010927002109271021092720210927302AA
:1010F0008BE98093F40288E08093F70280E091E02E
:101100009093F6028093F5020E942B0D9093F902C2
:101110008093F80230E020E08091F5029091F60291
:1011200028173907E0F4C9016091F40270E048E043
:1011300050E0FC01E078FF27880F991FEF2B11F09A
:101140008627972741505109A1F7E091F802F091C5
:10115000F902E20FF31F80832F5F3F4FDDCF109224
:10116000FD021092FC0288EE93E0A0E0B0E08093D4
:10117000FE029093FF02A0930003B09301038DE160
:1011800091E09093FB028093FA028EE78093020530
:1011900010920305109204051092050510920605A1
:1011A00081E88093070510920805109209051092B6
:1011B0000B0510920A0510920D0510920C05109265
:1011C0000E0510921105109212051092130510923F
:1011D000140510921505109216051092170510921D
:1011E00018051092190510921A0510921F051092F9
:1011F00020050895CF93DF93CDB7DEB768970FB67C
:10120000F894DEBF0FBECDBF789484B5826084BDF4
:1012100084B5816084BD85B5826085BD85B58160FA
:1012200085BD80916E00816080936E001092810078
:101230008091810082608093810080918100816033
:1012400080938100809180008160809380008091F4
:10125000B10084608093B1008091B0008160809380
:10126000B00080917A00846080937A0080917A0047
:10127000826080937A0080917A00816080937A0006
:1012800080917A00806880937A001092C10061E0BA
:1012900086E00E94E20162E085E00E94E201E091C6
:1012A0006702F091680282E08083E0916302F0912E
:1012B00064021082E0916502F091660280E1808311
:1012C00010926F02E0916B02F0916C0286E08083D5
:1012D000E0916902F0916A02808180618083E091EF
:1012E0006902F0916A02808188608083E0916902DE
:1012F000F0916A02808180688083E0916902F091B8
:101300006A0280818F7D80831092D4011092D30174
:1013100010923402109256020E94EE0287E890E08A
:101320009093D2018093D10188E890E09093D0010E
:101330008093CF0189E28093000182E90E9419061F
:10134000843409F481C08D3409F47EC08BE291E0CD
:101350000E94DE058DE491E00E94DE0561E083E0FD
:101360000E94E20161E085E00E94E20161E086E026
:101370000E94E20169E770E083E00E94130266E3E5
:1013800070E085E00E9413026EE570E086E00E9446
:10139000130261E089E00E94E20161E08AE00E94BC
:1013A000E20161E08BE00E94E20122242A94312CC8
:1013B00084EB0E94EB055C0186EB0E94EB056C015F
:1013C00088EB0E94EB058C018AEB0E94EB057C0107
:1013D0008091D5019091D601853D910509F493C086
:1013E00008F076C0009709F498C0803C910509F494
:1013F0008FC0D092E001C092DF011093E201009310
:10140000E101F092E401E092E301B092E601A092E2
:10141000E50188E0EFEDF1E0DE01519601900D92DB
:101420008A95E1F7C016D10608F47CC0C601CE1437
:10143000DF0408F07CC00C151D0508F46EC10E1504
:101440001F0508F073C067C160EC81E80E94750554
:1014500080EC90E09093D6018093D50163E08FE813
:101460000E9475056FEF84E80E94750560E085E8CD
:101470000E94750560E086E80E9475056FEF87E8B9
:101480000E94750562E08CE80E94750561E080E8C5
:101490000E94750563E070E080E090E00E94950294
:1014A00063E080E80E94750563E070E080E090E012
:1014B0000E94950280E80E941906682F606180E80A
:1014C0000E94750566E670E086E00E94130242CF36
:1014D000863F910599F08F3F910549F08B3E91052C
:1014E00009F087CF62E370E080E090E004C063E041
:1014F00070E080E090E00E9495027BCF68E170E0B0
:1015000080E090E0F8CF65E670E080E090E0F3CF17
:101510006AE970E080E090E0EECF6CEB72E080E092
:1015200090E0E9CF0E151F0508F4F2C0C801B10123
:101530000E94EF0C6F5F7F4F90E080E00E943D0CB7
:101540002B013C0120E030E0A9010E94970B97019C
:1015500058014601882321F1B60190E080E00E9405
:101560003D0CA30192010E949C0B0E940E0C4B01AA
:10157000B80190E080E00E943D0CA30192010E941E
:101580009C0B0E940E0C5B01B70190E080E00E9472
:101590003D0CA30192010E949C0B0E940E0C9B012A
:1015A0004FE18416910418F05EE1851A91088FE1ED
:1015B000A816B10418F09EE1A91AB1082F3131051F
:1015C00010F02E5131094FEF489DC001499D900DFB
:1015D000112461EE70E00E94EF0CF62FE72F4A9D78
:1015E000C0014B9D900D112461EE70E00E94EF0C44
:1015F000B62E472F5FEF529FC001539F900D1124CD
:1016000061EE70E00E94EF0C8F2F9E2F8F3F9105AF
:1016100019F010F08FEF90E09A8B898B8B2D942F1F
:101620008F3F910519F010F08FEF90E09C8B8B8B22
:10163000CB016F3F710519F010F08FEF90E09E8B9A
:101640008D8B88E0FE017196DE01119601900D925E
:101650008A95E1F788E0FE013196DE011996019046
:101660000D928A95E1F788E0FE013996A7EDB1E089
:1016700001900D928A95E1F781E791E00E94DE05E5
:10168000B60190E080E04AE00E94900586E791E094
:101690000E94DE05B80190E080E04AE00E949005DB
:1016A0008CE791E00E94DE05B70190E080E04AE01F
:1016B0000E9490058AE491E00E94DE05E090D90145
:1016C000F090DA010091DB011091DC016091D7010B
:1016D0007091D80189E00E941302B7018AE00E944C
:1016E0001302B8018BE00E94130264EF71E080E006
:1016F00090E00E94950280E090E0892B09F458CE9A
:101700000E94F300882309F453CE0E94000050CEBB
:10171000EC14FD0428F0C7010ACFE016F106D8F753
:10172000412C512C80E8682E8FE3782E15CF0E9433
:101730007A0C08F481E008950E94B00B0C94B50C6B
:101740000E94AE0C58F00E94A70C40F029F45F3FB5
:1017500029F00C949E0C51110C94E90C0C94A40CDF
:101760000E94C60C68F39923B1F3552391F3951B9E
:10177000550BBB27AA2762177307840738F09F5FB2
:101780005F4F220F331F441FAA1FA9F335D00E2E1F
:101790003AF0E0E832D091505040E695001CCAF78C
:1017A0002BD0FE2F29D0660F771F881FBB1F26174F
:1017B00037074807AB07B0E809F0BB0B802DBF0126
:1017C000FF2793585F4F3AF09E3F510578F00C94F5
:1017D0009E0C0C94E90C5F3FE4F3983ED4F386959D
:1017E00077956795B795F7959F5FC9F7880F911D16
:1017F0009695879597F90895E1E0660F771F881F02
:10180000BB1F621773078407BA0720F0621B730BB4
:10181000840BBA0BEE1F88F7E09508950E94CE0C5A
:1018200088F09F5798F0B92F9927B751B0F0E1F0A1
:10183000660F771F881F991F1AF0BA95C9F714C051
:10184000B13091F00E94E80CB1E008950C94E80CDE
:10185000672F782F8827B85F39F0B93FCCF386958A
:1018600077956795B395D9F73EF4909580957095E7
:1018700061957F4F8F4F9F4F0895E89409C097FB64
:101880003EF490958095709561957F4F8F4F9F4F57
:101890009923A9F0F92F96E9BB279395F69587959B
:1018A00077956795B795F111F8CFFAF4BB0F11F45E
:1018B00060FF1BC06F5F7F4F8F4F9F4F16C0882305
:1018C00011F096E911C0772321F09EE8872F762F3B
:1018D00005C0662371F096E8862F70E060E02AF07C
:1018E0009A95660F771F881FDAF7880F9695879568
:1018F00097F90895990F0008550FAA0BE0E8FEEF3D
:1019000016161706E807F907C0F012161306E407C3
:10191000F50798F0621B730B840B950B39F40A26BC
:1019200061F0232B242B252B21F408950A2609F49A
:10193000A140A6958FEF811D811D089597F99F679E
:1019400080E870E060E008959FEF80EC0895002447
:101950000A941616170618060906089500240A9414
:1019600012161306140605060895092E0394000C9A
:1019700011F4882352F0BB0F40F4BF2B11F460FF29
:1019800004C06F5F7F4F8F4F9F4F089557FD905852
:10199000440F551F59F05F3F71F04795880F97FB33
:1019A000991F61F09F3F79F08795089512161306ED
:1019B0001406551FF2CF4695F1DF08C0161617061C
:1019C0001806991FF1CF8695710561050894089551
:1019D000E894BB2766277727CB0197F90895AA1BC0
:1019E000BB1B51E107C0AA1FBB1FA617B70710F00A
:1019F000A61BB70B881F991F5A95A9F7809590953C
:101A0000BC01CD010895A1E21A2EAA1BBB1BFD014A
:101A10000DC0AA1FBB1FEE1FFF1FA217B307E407CD
:101A2000F50720F0A21BB30BE40BF50B661F771F25
:101A3000881F991F1A9469F7609570958095909505
:101A40009B01AC01BD01CF010895EE0FFF1F059072
:101A5000F491E02D09940F931F93CF93DF9382307D
:101A6000910510F482E090E0E0912905F0912A05BB
:101A700030E020E0B0E0A0E0309799F42115310586
:101A800009F44AC0281B390B24303105D8F58A8166
:101A90009B816115710589F1FB0193838283FE01AE
:101AA00011C0408151810281138148175907E0F02C
:101AB0004817590799F4109761F012960C931297F2
:101AC00013961C933296CF01DF91CF911F910F9106
:101AD00008950093290510932A05F4CF21153105A7
:101AE00051F04217530738F0A901DB019A01BD01FB
:101AF000DF01F801C1CFEF01F9CF90932A05809360
:101B00002905CDCFFE01E20FF31F8193919322505F
:101B1000310939832883D7CF2091270530912805B3
:101B2000232B41F4209103013091040130932805C7
:101B300020932705209101013091020121153105E3
:101B400041F42DB73EB74091050150910601241B89
:101B5000350BE0912705F0912805E217F307A0F473
:101B60002E1B3F0B2817390778F0AC014E5F5F4FF3
:101B70002417350748F04E0F5F1F509328054093F8
:101B80002705819391939FCFF0E0E0E09CCFCF9326
:101B9000DF930097E9F0FC01329713821282A09143
:101BA0002905B0912A05ED0130E020E01097A1F45D
:101BB00020813181820F931F2091270530912805C4
:101BC0002817390709F061C0F0932805E09327052D
:101BD000DF91CF910895EA01CE17DF07E8F54A813A
:101BE0005B819E0141155105B1F7E901FB83EA8351
:101BF00049915991C40FD51FEC17FD0761F48081FD
:101C000091810296840F951FE901998388838281CF
:101C100093819B838A83F0E0E0E012968D919C9102
:101C200013970097B9F52D913C911197CD0102962C
:101C3000820F931F20912705309128052817390717
:101C400039F6309751F510922A0510922905B09374
:101C50002805A0932705BCCFD383C283408151813F
:101C6000840F951FC817D90761F44E5F5F4F8881B5
:101C70009981480F591F518340838A819B819383A7
:101C800082832115310509F0B0CFF0932A05E09346
:101C900029059ECFFD01DC01C0CF13821282D7CF70
:101CA000F894FFCF2900002B0580000000000029D8
:101CB000018900B6007601E700C500D900000000E8
:101CC00000430516057205EC040F05FC04ED0454F1
:101CD0004353333437323520696E697469616C69F6
:101CE0007A6174696F6E206572726F7221210D0ABC
:101CF00000544353333437323520696E6974696157
:101D00006C697A6174696F6E207375636365737350
:101D100021210D0A0052203D20002047203D2000B7
:061D20002042203D2000DE
:107E0000112484B714BE81FFF0D085E080938100F7
:107E100082E08093C00088E18093C10086E0809377
:107E2000C20080E18093C4008EE0C9D0259A86E02C
:107E300020E33CEF91E0309385002093840096BBD3
:107E4000B09BFECF1D9AA8958150A9F7CC24DD24C4
:107E500088248394B5E0AB2EA1E19A2EF3E0BF2EE7
:107E6000A2D0813461F49FD0082FAFD0023811F036
:107E7000013811F484E001C083E08DD089C08234E0
:107E800011F484E103C0853419F485E0A6D080C0E4
:107E9000853579F488D0E82EFF2485D0082F10E0AE
:107EA000102F00270E291F29000F111F8ED06801E7
:107EB0006FC0863521F484E090D080E0DECF843638
:107EC00009F040C070D06FD0082F6DD080E0C81688
:107ED00080E7D80618F4F601B7BEE895C0E0D1E017
:107EE00062D089930C17E1F7F0E0CF16F0E7DF06D8
:107EF00018F0F601B7BEE89568D007B600FCFDCFD4
:107F0000A601A0E0B1E02C9130E011968C91119780
:107F100090E0982F8827822B932B1296FA010C0160
:107F200087BEE89511244E5F5F4FF1E0A038BF0790
:107F300051F7F601A7BEE89507B600FCFDCF97BE46
:107F4000E89526C08437B1F42ED02DD0F82E2BD052
:107F50003CD0F601EF2C8F010F5F1F4F84911BD097
:107F6000EA94F801C1F70894C11CD11CFA94CF0C13
:107F7000D11C0EC0853739F428D08EE10CD085E9AC
:107F80000AD08FE07ACF813511F488E018D01DD067
:107F900080E101D065CF982F8091C00085FFFCCF94
:107FA0009093C60008958091C00087FFFCCF809118
:107FB000C00084FD01C0A8958091C6000895E0E648
:107FC000F0E098E1908380830895EDDF803219F02E
:107FD00088E0F5DFFFCF84E1DECF1F93182FE3DFCA
:107FE0001150E9F7F2DF1F91089580E0E8DFEE27F6
:047FF000FF270994CA
:027FFE00040479
:00000001FF
