:100000000C945D000C9485000C9485000C94850084
:100010000C9485000C9485000C9485000C9485004C
:100020000C9485000C9485000C9485000C9485003C
:100030000C9485000C9485000C9485000C9485002C
:100040000C94CD060C9485000C949B060C947506BC
:100050000C9485000C9485000C9485000C9485000C
:100060000C9417070C948500000000002400270062
:100070002A0000000000250028002B0004040404CE
:100080000404040402020202020203030303030342
:10009000010204081020408001020408102001021F
:1000A00004081020000000080002010000030407FB
:1000B0000000000000000000360811241FBECFEF32
:1000C000D8E0DEBFCDBF11E0A0E0B1E0EEE9F8E19D
:1000D00002C005900D92AC37B107D9F722E0ACE72A
:1000E000B1E001C01D92AA3EB207E1F710E0CDE5F4
:1000F000D0E004C02197FE010E94470CCC35D10707
:10010000C9F70E946F080C944D0C0C9400000895E0
:100110000895AF92BF92CF92DF92EF92FF920F932A
:100120001F93CF93DF936C017B018B01040F151F8D
:10013000EB015E01AE18BF08C017D10759F06991F5
:10014000D601ED91FC910190F081E02DC601099559
:10015000892B79F7C501DF91CF911F910F91FF9006
:10016000EF90DF90CF90BF90AF900895FC01538D3A
:10017000448D252F30E0842F90E0821B930B541781
:1001800010F0CF96089501970895FC01918D828D0E
:10019000981761F0A28DAE0FBF2FB11D5D968C91A7
:1001A000928D9F5F9F73928F90E008958FEF9FEFE6
:1001B0000895FC01918D828D981731F0828DE80FA2
:1001C000F11D858D90E008958FEF9FEF0895FC015C
:1001D000918D228D892F90E0805C9F4F821B910929
:1001E0008F739927089581E492E00E94E70021E04F
:1001F000892B09F420E0822F089580E090E0892B7C
:1002000029F00E94F30081110C9400000895FC0174
:10021000A48DA80FB92FB11DA35ABF4F2C91848D67
:1002200090E001968F739927848FA689B7892C93C4
:10023000A089B1898C91837080648C93938D848D17
:10024000981306C00288F389E02D80818F7D80831A
:100250000895EF92FF920F931F93CF93DF93EC01DA
:1002600081E0888F9B8D8C8D98131AC0E889F9895D
:10027000808185FF15C09FB7F894EE89FF89608360
:10028000E889F98980818370806480839FBF81E0E1
:1002900090E0DF91CF911F910F91FF90EF90089523
:1002A000F62E0B8D10E00F5F1F4F0F731127E02EFE
:1002B0008C8D8E110CC00FB607FCFACFE889F98936
:1002C000808185FFF5CFCE010E940701F1CFEB8D34
:1002D000EC0FFD2FF11DE35AFF4FF0829FB7F8940A
:1002E0000B8FEA89FB8980818062CFCFCF93DF9328
:1002F000EC01888D8823B9F0AA89BB89E889F9893E
:100300008C9185FD03C0808186FD0DC00FB607FC72
:10031000F7CF8C9185FFF2CF808185FFEDCFCE01A5
:100320000E940701E9CFDF91CF91089590E0FC0191
:10033000EC55FF4F2491FC01E057FF4F3491FC0135
:10034000E458FF4FE491EE23C9F0222339F0233023
:1003500001F1A8F4213019F1223029F1F0E0EE0F7B
:10036000FF1FEE58FF4FA591B4918FB7F894EC9111
:10037000611126C030953E233C938FBF08952730EE
:10038000A9F02830C9F0243049F7809180008F7D92
:1003900003C0809180008F7780938000DFCF84B589
:1003A0008F7784BDDBCF84B58F7DFBCF8091B0008C
:1003B0008F778093B000D2CF8091B0008F7DF9CF3E
:1003C0003E2BDACFCF93DF9390E0FC01E057FF4F55
:1003D000249184589F4FFC0184918823D1F090E0B0
:1003E000880F991FFC01E859FF4FA591B491FC01BA
:1003F000EE58FF4FC591D491623071F49FB7F894D5
:100400003C91822F809583238C93E8812E2B288327
:100410009FBFDF91CF9108958FB7F894EC912E2B69
:100420002C938FBFF6CF1F93CF93DF93182FEB0141
:1004300061E00E94E201209739F460E0812FDF91B2
:10044000CF911F910C949601CF3FD10511F461E03B
:10045000F5CFE12FF0E0EC55FF4FE491E33031F1BF
:1004600040F4E130B1F0E230E1F0C038D1057CF782
:10047000E4CFE73029F1E83059F1E430B1F7809169
:100480008000806280938000D0938B00C0938A00AC
:1004900004C084B5806884BDC7BDDF91CF911F9132
:1004A000089584B5806284BDC8BDF7CF8091800077
:1004B000806880938000D0938900C0938800EDCF3E
:1004C0008091B00080688093B000C093B300E5CF06
:1004D0008091B00080628093B000C093B400DDCF03
:1004E0003FB7F8948091C5019091C601A091C701D2
:1004F000B091C80126B5A89B05C02F3F19F0019601
:10050000A11DB11D3FBFBA2FA92F982F8827BC016D
:10051000CD01620F711D811D911D42E0660F771F95
:10052000881F991F4A95D1F708958F929F92AF9295
:10053000BF92CF92DF92EF92FF924B015C010E943B
:1005400070026B017C010E9470026C197D098E099A
:100550009F09683E734081059105A8F321E0821A46
:100560009108A108B10888EEC80E83E0D81EE11CEE
:10057000F11C81149104A104B10429F7FF90EF90BC
:10058000DF90CF90BF90AF909F908F900895209173
:100590009D01260F3327331F21323105ECF42091C2
:1005A0001702FC0190E080E0243069F082E00895B9
:1005B000A0919D012191AC0143585E4FA40FB52F2E
:1005C000B11D2C930196861798F380919D01680FB9
:1005D00060939D0180E0089581E0089510921702D4
:1005E00081E0809316021092F10161E082E10E94A5
:1005F000960161E083E10E949601E9EBF0E08081E1
:100600008E7F808380818D7F808388E48093B80093
:1006100085E48093BC000895CF93DF9391E090939D
:100620007C018823B9F0C091B800D091BA008091C4
:10063000BC008A7B8093BC0060E082E10E9496014E
:1006400060E083E10E9496010E94EE02D093BA001E
:10065000C093B800DF91CF9108958F929F92AF928F
:10066000BF92CF92DF92EF92FF920F931F93CF939F
:10067000DF93D0914002D13208F0D7C0182FC0913B
:100680003F020E9470026B017C0180911702811170
:100690006BC082E080931702109316028FEF809355
:1006A000150210921402D0931302AFE1B2E0E3EF0F
:1006B000F1E080E0D81391C01092F2018091F20134
:1006C000CC0FC82BC093F2018091F101813009F069
:1006D00088C01092F1010E9470026B017C01809130
:1006E000F2018093BB008091190290911A02A091AF
:1006F0001B02B0911C02892B8A2B8B2BA1F00E942C
:1007000070020091190210911A0220911B0230917F
:100710001C026C197D098E099F0906171707280707
:10072000390708F442C08091BC0083FDD8CF85EC26
:100730008093BC000E9470026B017C0180911702C3
:10074000823009F450C0809115028F3F09F46FC0C8
:1007500080911502803209F46CC0809115028033BB
:1007600009F469C084E026C08091190290911A02B0
:10077000A0911B02B0911C02892B8A2B8B2B09F4B0
:1007800084CF0E9470028090190290901A02A0906B
:100790001B02B0901C026C197D098E099F098616F8
:1007A0009706A806B90608F070CF809118020E943B
:1007B0000C0385E010921E021092400210921D025E
:1007C000DF91CF911F910F91FF90EF90DF90CF902D
:1007D000BF90AF909F908F9008959D9191938F5F60
:1007E00069CF85EEA5CF8091190290911A02A09150
:1007F0001B02B0911C02892B8A2B8B2B09F49ECFF4
:100800000E9470020091190210911A0220911B029D
:1008100030911C026C197D098E099F090617170774
:100820002807390708F08ACFC0CF81E0C3CF80E026
:10083000C1CF82E0BFCF83E0BDCFCF92DF92EF92F6
:10084000FF920F931F93CF93DF93D82FC62F613260
:1008500008F098C00E9470026B017C018091170221
:1008600081116BC081E080931702809316029FEF85
:1008700090931502109214029C0F90931302809390
:10088000F2018091F201DD0FD82BD093F20180911B
:10089000F101813009F078C01092F1010E947002DC
:1008A0006B017C018091F2018093BB008091190261
:1008B00090911A02A0911B02B0911C02892B8A2BE5
:1008C0008B2BA1F00E9470020091190210911A0264
:1008D00020911B0230911C026C197D098E099F0921
:1008E000061717072807390708F448C08091BC008D
:1008F00083FDD8CF85EC8093BC000E9470026B0111
:100900007C0180911702813009F440C0809114026B
:100910008C1710F4C0911402E3EFF1E0A1EDB1E007
:1009200080E08C1355C08C2FDF91CF911F910F91D8
:10093000FF90EF90DF90CF900895809119029091F1
:100940001A02A0911B02B0911C02892B8A2B8B2BBF
:1009500009F484CF0E9470020091190210911A02CA
:1009600020911B0230911C026C197D098E099F0990
:10097000061717072807390708F070CF809118026B
:100980000E940C03C0E0CFCF85EEB5CF8091190255
:1009900090911A02A0911B02B0911C02892B8A2B04
:1009A0008B2B09F4AECF0E947002009119021091B6
:1009B0001A0220911B0230911C026C197D098E09CC
:1009C0009F09061717072807390708F09ACFD6CFCF
:1009D00091919D938F5FA5CF0895E091CE01809175
:1009E000CD01E81730F4F0E0EF52FE4F808190E047
:1009F00008958FEF9FEF08959091CE018091CD01E2
:100A00002FEF3FEF981748F4E92FF0E0EF52FE4F39
:100A1000208130E09F5F9093CE01C90108958091BD
:100A2000CD019091CE01891B990B0895CF92DF9251
:100A3000EF92FF920F931F93CF93DF937C01CB0133
:100A40008A0120911D02222389F0EB016B01C40E63
:100A5000D51ECC15DD0569F06991D701ED91FC91AA
:100A60000190F081E02DC7010995F3CF642F0E941A
:100A7000C702C801DF91CF911F910F91FF90EF90B6
:100A8000DF90CF900895CF93DF931F92CDB7DEB75D
:100A9000698320911D022223F9F020914002203227
:100AA00058F021E030E0FC013383228390E080E0C5
:100AB0000F90DF91CF91089580911E02E82FF0E012
:100AC000E15EFD4F998190838F5F80931E0280933A
:100AD000400281E090E0ECCF61E0CE0101960E94FF
:100AE000C702F7CF90E080E00895CF93C62F909192
:100AF000000121E020931D0290933F0210921E02FC
:100B000010924002682F8EED92E00E9443056C2FF8
:100B10008EED92E00E94430581E0CF910C942D036D
:100B20008F929F92AF92BF920F931F93CF93DF93B9
:100B3000CDB7DEB7A1970FB6F894DEBF0FBECDBF1D
:100B400019A2423008F44AE08E010F5D1F4F842E37
:100B5000912CB12CA12CA50194010E94250CE62F0B
:100B6000B901CA01EA3044F5E05DD801EE938D0188
:100B7000232B242B252B79F790E080E0109769F048
:100B8000FD0101900020E9F73197AF014A1B5B0B93
:100B9000BD0181E492E00E948900A1960FB6F8940D
:100BA000DEBF0FBECDBFDF91CF911F910F91BF90E0
:100BB000AF909F908F900895E95CD7CFFC01019092
:100BC0000020E9F73197AF01481B590BBC0181E4C4
:100BD00092E00C948900CF93DF93C091000191E0E3
:100BE00090931D02C0933F0210921E021092400289
:100BF000682F8EED92E00E94430581E00E942D0354
:100C000062E08C2F0E941D041092CE018093CD01D2
:100C10008EED92E00E94FC04EC018EED92E00E94C9
:100C2000FC0420E0382FCE01822B932BDF91CF9153
:100C30000895CF93C091000191E090931D02C0935D
:100C40003F0210921E0210924002682F8EED92E039
:100C50000E94430581E00E942D0361E08C2F0E94D9
:100C60001D041092CE018093CD01882321F08EEDDA
:100C700092E00E94FC04CF91089585ED8093BC0022
:100C80008091190290911A02A0911B02B0911C024E
:100C90000796A11DB11D23E0B695A7959795879559
:100CA0002A95D1F72091BC0024FD03C010921702B1
:100CB00008954091190250911A0260911B0270919F
:100CC0001C02452B462B472B69F30097A105B10564
:100CD00041F02AE22A95F1F700C00197A109B10974
:100CE000E1CF809118020C940C031F920F920FB663
:100CF0000F9211242F933F934F935F936F937F93A2
:100D00008F939F93AF93BF93EF93FF9381E492E010
:100D10000E940701FF91EF91BF91AF919F918F9139
:100D20007F916F915F914F913F912F910F900FBEE7
:100D30000F901F9018951F920F920FB60F921124CB
:100D40002F938F939F93EF93FF93E0915102F09134
:100D500052028081E0915702F091580282FD1BC03F
:100D6000908180915A028F5F8F7320915B0282176E
:100D700041F0E0915A02F0E0EF5BFD4F958F8093D8
:100D80005A02FF91EF919F918F912F910F900FBE7B
:100D90000F901F9018958081F4CF1F920F920FB67D
:100DA0000F9211242F933F938F939F93AF93BF93F1
:100DB0008091C1019091C201A091C301B091C40181
:100DC0003091C00123E0230F2D3758F50196A11D66
:100DD000B11D2093C0018093C1019093C201A093E3
:100DE000C301B093C4018091C5019091C601A09147
:100DF000C701B091C8010196A11DB11D8093C50125
:100E00009093C601A093C701B093C801BF91AF9161
:100E10009F918F913F912F910F900FBE0F901F9038
:100E2000189526E8230F0296A11DB11DD2CF1F925F
:100E30000F920FB60F9211242F933F934F935F930E
:100E40006F937F938F939F93AF93BF93EF93FF9392
:100E50008091B900887F803609F44AC0F0F5883265
:100E600009F4A7C018F5803109F49BC0B8F48823B1
:100E700009F4F9C0883009F494C0FF91EF91BF9153
:100E8000AF919F918F917F916F915F914F913F9122
:100E90002F910F900FBE0F901F901895883109F475
:100EA00088C0803251F78093150214C0803409F451
:100EB0009DC040F48033B9F38833F9F6809315026E
:100EC00085ECB0C0803509F485C0883509F496C03A
:100ED000883499F60E943D06D0CF883909F48CC039
:100EE00038F5883729F050F4883611F0803729F624
:100EF00083E0809317021092BF0157C0883809F42D
:100F00007BC0803919F0803809F0B7CF8091BF01DC
:100F1000803208F071C0E091BF0181E08E0F8093B4
:100F2000BF018091BB00F0E0E156FE4F80833DC0E1
:100F3000803B39F0E0F4803A09F479C0883A09F04E
:100F40009CCF84E08093170210929E0110929D0125
:100F5000E091CB01F091CC01099580919D01811127
:100F60000FC081E080939D0110927D0109C0803CFB
:100F700009F4A6CF883C09F4A3CF883B09F07DCFC4
:100F8000E0919E0181E08E0F80939E01F0E0E35896
:100F9000FE4F80818093BB0090919E0180919D01C6
:100FA00029C08091F2018093BB0085EC8093BC0046
:100FB00064CF9091140280911302981758F5E09134
:100FC000140281E08E0F80931402F0E0ED50FE4F8A
:100FD0008081E9CFE091140281E08E0F80931402AA
:100FE0008091BB00F0E0ED50FE4F808390911402A1
:100FF000809113029817C8F285E8D8CFE0911402C7
:1010000081E08E0F809314028091BB00F0E0ED50E0
:10101000FE4F80838091160281115CCF81E0809326
:10102000F10184EA8093BC001092170226CF85EC70
:101030008093BC00109217028091BF01803230F47F
:10104000E091BF01F0E0E156FE4F10826091BF01D8
:1010500070E0E091C901F091CA018FE991E0099532
:101060001092BF010ACF1092150234CFE1E4F2E0F2
:101070001382128288EE93E0A0E0B0E0848395832F
:10108000A683B78325E031E03183208325EC30E06F
:101090003587248724EC30E03787268720EC30E042
:1010A000318B208B21EC30E0338B228B22EC30E033
:1010B000358B248B26EC30E0378B268B118E128EED
:1010C000138E148EEEEDF2E01382128284839583E8
:1010D000A683B78387E191E0918380830895789414
:1010E00084B5826084BD84B5816084BD85B582602D
:1010F00085BD85B5816085BD80916E0081608093DE
:101100006E00109281008091810082608093810046
:101110008091810081608093810080918000816056
:10112000809380008091B10084608093B1008091B1
:10113000B00081608093B00080917A0084608093D9
:101140007A0080917A00826080937A0080917A00A0
:10115000816080937A0080917A00806880937A0021
:101160001092C10061E086E00E94E20162E085E049
:101170000E94E201E0915102F091520282E08083EC
:10118000E0914D02F0914E021082E0914F02F091F9
:10119000500280E1808310925902E0915502F09153
:1011A000560286E08083E0915302F09154028081E0
:1011B00080618083E0915302F091540280818860C5
:1011C0008083E0915302F091540280818068808393
:1011D000E0915302F091540280818F7D80831092C0
:1011E000CE011092CD0110921E02109240020E9478
:1011F000EE0287E890E09093CC018093CB0188E8E1
:1012000090E09093CA018093C90189E28093000124
:1012100082E90E941906843409F45BC08D3409F414
:1012200058C085E291E00E94DE0587E491E00E94CB
:10123000DE0561E089E00E94E20161E08AE00E944F
:10124000E20161E08BE00E94E20161E086E00E9441
:10125000E20161E085E00E94E20161E083E00E943A
:10126000E20188248A94912C31EE232E312C84EBD8
:101270000E94EB0586EB0E94EB057C0188EB0E9447
:10128000EB05EC018AEB0E94EB058C018091CF010C
:101290009091D001853D910509F47AC008F05DC0B8
:1012A000009709F47FC0803C910509F476C0EC16E4
:1012B000FD0608F47CC0C701E016F10608F07CC00A
:1012C000CE15DF0508F44BC1C017D10708F073C075
:1012D00044C160EC81E80E94750580EC90E0909339
:1012E000D0018093CF0163E08FE80E9475056FEF16
:1012F00084E80E94750560E085E80E94750560E05D
:1013000086E80E9475056FEF87E80E94750562E028
:101310008CE80E94750561E080E80E94750563E035
:1013200070E080E090E00E94950263E080E80E9417
:10133000750563E070E080E090E00E94950280E82F
:101340000E941906682F606180E80E94750566E6B4
:1013500070E086E00E94130268CF863F910599F005
:101360008F3F910549F08B3E910509F0A0CF62E3D4
:1013700070E080E090E004C063E070E080E090E026
:101380000E94950294CF68E170E080E090E0F8CF91
:1013900065E670E080E090E0F3CF6AE970E080E01D
:1013A00090E0EECF6CEB72E080E090E0E9CFC01708
:1013B000D10708F4CFC0CE01B4010E94110C6F5FB9
:1013C0007F4F90E080E00E945F0B2B013C0120E00A
:1013D00030E0A9010E94B90A98016E0157018823E3
:1013E00021F1B70190E080E00E945F0BA301920120
:1013F0000E94BE0A0E94300B5B01BE0190E080E0BB
:101400000E945F0BA30192010E94BE0A0E94300B52
:101410006B01B80190E080E00E945F0BA301920194
:101420000E94BE0A0E94300B9B014FE1A416B1043A
:1014300018F08EE1A81AB1089FE1C916D10418F07E
:101440004EE1C41AD1082F31310510F02E51310967
:101450004FEF4A9DC0014B9D900D1124B1010E9498
:10146000110C5B014C9DC0014D9D900D1124B101EB
:101470000E94110C6B01429FC001439F900D1124EB
:10148000B1010E94110C762E672E8BE691E00E942E
:10149000DE05B70190E080E04AE00E94900580E719
:1014A00091E00E94DE05BE0190E080E04AE00E94EB
:1014B000900586E791E00E94DE05B80190E080E0AB
:1014C0004AE00E94900584E491E00E94DE05E50177
:1014D000CF3FD10519F010F0CFEFD0E0BE0189E089
:1014E0000E94130286010F3F110519F010F00FEF53
:1014F00010E0B8018AE00E941302E72CF62C8FEF6F
:10150000E816F10421F018F0EE24EA94F12CB7016A
:101510008BE00E941302BE0186E00E941302B80114
:1015200085E00E941302B70183E00E94130264EF7A
:1015300071E080E090E00E94950280E090E0892BCD
:1015400009F495CE0E94F300882309F490CE0E94FE
:1015500000008DCE0E151F0528F0C8012DCF0C17E9
:101560001D07D8F7412C512C90E8692E9FE3792E66
:1015700038CF0E949C0B08F481E008950E94D20AA3
:101580000C94D70B0E94D00B58F00E94C90B40F06E
:1015900029F45F3F29F00C94C00B51110C940B0CF3
:1015A0000C94C60B0E94E80B68F39923B1F3552302
:1015B00091F3951B550BBB27AA2762177307840766
:1015C00038F09F5F5F4F220F331F441FAA1FA9F3FC
:1015D00035D00E2E3AF0E0E832D091505040E695EA
:1015E000001CCAF72BD0FE2F29D0660F771F881F4B
:1015F000BB1F261737074807AB07B0E809F0BB0B3E
:10160000802DBF01FF2793585F4F3AF09E3F510551
:1016100078F00C94C00B0C940B0C5F3FE4F3983EF5
:10162000D4F3869577956795B795F7959F5FC9F73A
:10163000880F911D9695879597F90895E1E0660FBB
:10164000771F881FBB1F621773078407BA0720F034
:10165000621B730B840BBA0BEE1F88F7E09508959D
:101660000E94F00B88F09F5798F0B92F9927B75137
:10167000B0F0E1F0660F771F881F991F1AF0BA9536
:10168000C9F714C0B13091F00E940A0CB1E008957E
:101690000C940A0C672F782F8827B85F39F0B93F70
:1016A000CCF3869577956795B395D9F73EF49095E9
:1016B0008095709561957F4F8F4F9F4F0895E89467
:1016C00009C097FB3EF490958095709561957F4F8A
:1016D0008F4F9F4F9923A9F0F92F96E9BB27939538
:1016E000F695879577956795B795F111F8CFFAF448
:1016F000BB0F11F460FF1BC06F5F7F4F8F4F9F4F79
:1017000016C0882311F096E911C0772321F09EE8D6
:10171000872F762F05C0662371F096E8862F70E03C
:1017200060E02AF09A95660F771F881FDAF7880F16
:101730009695879597F90895990F0008550FAA0B6C
:10174000E0E8FEEF16161706E807F907C0F01216D4
:101750001306E407F50798F0621B730B840B950BD7
:1017600039F40A2661F0232B242B252B21F408952C
:101770000A2609F4A140A6958FEF811D811D0895C9
:1017800097F99F6780E870E060E008959FEF80EC34
:10179000089500240A9416161706180609060895D7
:1017A00000240A9412161306140605060895092E3D
:1017B0000394000C11F4882352F0BB0F40F4BF2BAC
:1017C00011F460FF04C06F5F7F4F8F4F9F4F0895EC
:1017D00057FD9058440F551F59F05F3F71F04795E2
:1017E000880F97FB991F61F09F3F79F087950895C7
:1017F000121613061406551FF2CF4695F1DF08C0E6
:10180000161617061806991FF1CF86957105610502
:1018100008940895E894BB2766277727CB0197F9AA
:101820000895AA1BBB1B51E107C0AA1FBB1FA61727
:10183000B70710F0A61BB70B881F991F5A95A9F779
:1018400080959095BC01CD010895A1E21A2EAA1BA6
:10185000BB1BFD010DC0AA1FBB1FEE1FFF1FA21760
:10186000B307E407F50720F0A21BB30BE40BF50B5D
:10187000661F771F881F991F1A9469F760957095E6
:10188000809590959B01AC01BD01CF010895EE0FAD
:0E189000FF1F0590F491E02D0994F894FFCF0E
:10189E00290000000029018900B6007601E700C585
:1018AE0000D90000000000430516057205EC040F78
:1018BE0005FC04ED04544353333437323520696E3E
:1018CE00697469616C697A6174696F6E2065727290
:1018DE006F7221210D0A00544353333437323520B1
:1018EE00696E697469616C697A6174696F6E20736F
:1018FE0075636365737321210D0A0052203D20002C
:0C190E002047203D20002042203D20000A
:00000001FF
