:020000040000FA
:100000000C945D000C9485000C9485000C94850084
:100010000C9485000C9485000C9485000C9485004C
:100020000C9485000C9485000C9485000C9485003C
:100030000C9485000C9485000C9485000C9485002C
:100040000C941F030C9485000C94ED020C94C702D1
:100050000C9485000C9485000C9485000C9485000C
:100060000C9469030C948500000000080002010054
:100070000003040700000000000000000000000072
:10008000250028002B0000000000240027002A0083
:10009000040404040404040402020202020203032E
:1000A0000303030301020408102040800102040836
:1000B0001020010204081020880411241FBECFEF75
:1000C000D8E0DEBFCDBF11E0A0E0B1E0EAE9FEE09C
:1000D00002C005900D92AA32B107D9F724E0AAE236
:1000E000B1E001C01D92AF39B207E1F710E0CDE5F4
:1000F000D0E004C02197FE010E942006CC35D10734
:10010000C9F70E944C050C944B070C94000008950D
:100110000895AF92BF92CF92DF92EF92FF920F932A
:100120001F93CF93DF936C017B018B01040F151F8D
:10013000EB015E01AE18BF08C017D10759F06991F5
:10014000D601ED91FC910190F081E02DC601099559
:10015000892B79F7C501DF91CF911F910F91FF9006
:10016000EF90DF90CF90BF90AF900895FC01538D3A
:10017000448D252F30E0842F90E0821B930B541781
:1001800010F0CF96089501970895FC01918D828D0E
:10019000981761F0A28DAE0FBF2FB11D5D968C91A7
:1001A000928D9F5F9F73928F90E008958FEF9FEFE6
:1001B0000895FC01918D828D981731F0828DE80FA2
:1001C000F11D858D90E008958FEF9FEF0895FC015C
:1001D000918D228D892F90E0805C9F4F821B910929
:1001E0008F73992708958BEC91E00E94E70021E03E
:1001F000892B09F420E0822F089580E090E0892B7C
:1002000029F00E94F30081110C9400000895FC0174
:10021000A48DA80FB92FB11DA35ABF4F2C91848D67
:1002200090E001968F739927848FA689B7892C93C4
:10023000A089B1898C91837080648C93938D848D17
:10024000981306C00288F389E02D80818F7D80831A
:100250000895EF92FF920F931F93CF93DF93EC01DA
:1002600081E0888F9B8D8C8D98131AC0E889F9895D
:10027000808185FF15C09FB7F894EE89FF89608360
:10028000E889F98980818370806480839FBF81E0E1
:1002900090E0DF91CF911F910F91FF90EF90089523
:1002A000F62E0B8D10E00F5F1F4F0F731127E02EFE
:1002B0008C8D8E110CC00FB607FCFACFE889F98936
:1002C000808185FFF5CFCE010E940701F1CFEB8D34
:1002D000EC0FFD2FF11DE35AFF4FF0829FB7F8940A
:1002E0000B8FEA89FB8980818062CFCFCF93DF9328
:1002F000EC01888D8823B9F0AA89BB89E889F9893E
:100300008C9185FD03C0808186FD0DC00FB607FC72
:10031000F7CF8C9185FFF2CF808185FFEDCFCE01A5
:100320000E940701E9CFDF91CF91089590E0FC0191
:10033000E859FF4F2491FC01EC55FF4F3491FC012B
:10034000E057FF4FE491EE23C9F0222339F0233028
:1003500001F1A8F4213019F1223029F1F0E0EE0F7B
:10036000FF1FE458FF4FA591B4918FB7F894EC911B
:10037000611126C030953E233C938FBF08952730EE
:10038000A9F02830C9F0243049F7809180008F7D92
:1003900003C0809180008F7780938000DFCF84B589
:1003A0008F7784BDDBCF84B58F7DFBCF8091B0008C
:1003B0008F778093B000D2CF8091B0008F7DF9CF3E
:1003C0003E2BDACF20917001260F3327331F2132C5
:1003D0003105ECF420919401FC0190E080E02430A0
:1003E00069F082E00895A09170012191AC01405B19
:1003F0005E4FA40FB52FB11D2C930196861798F36D
:1004000080917001680F6093700180E0089581E031
:1004100008951092940181E08093960110929501C5
:1004200061E082E10E94960161E083E10E94960111
:10043000E9EBF0E080818E7F808380818D7F8083F7
:1004400088E48093B80085E48093BC000895089503
:10045000E091CA018091C901E81730F4F0E0E65D4F
:10046000FE4F808190E008958FEF9FEF0895909167
:10047000CA018091C9012FEF3FEF981748F4E92F87
:10048000F0E0E65DFE4F208130E09F5F9093CA016F
:10049000C90108958091C9019091CA01891B990BE6
:1004A0000895CF93DF93CB01EA01642F0E94E2010C
:1004B000CE01DF91CF910895CF93DF931F92CDB7F7
:1004C000DEB7698361E0CE0101960E94E20181E01E
:1004D00090E00F90DF91CF91089590E080E0089533
:1004E000CF93DF9385ED8093BC0080914C01909178
:1004F0004D01A0914E01B0914F010796A11DB11D74
:1005000023E0B695A795979587952A95D1F72091E1
:10051000BC0024FD03C01092940136C040914C01F0
:1005200050914D0160914E0170914F01452B462B2A
:10053000472B69F30097A105B10541F02AE22A95FE
:10054000F1F700C00197A109B109E1CF80914B01FA
:1005500091E090934A018823B9F0C091B800D091FE
:10056000BA008091BC008A7B8093BC0060E082E18D
:100570000E94960160E083E10E9496010E940902B8
:10058000D093BA00C093B800DF91CF9108951F9225
:100590000F920FB60F9211242F933F934F935F93B7
:1005A0006F937F938F939F93AF93BF93EF93FF933B
:1005B0008BEC91E00E940701FF91EF91BF91AF9109
:1005C0009F918F917F916F915F914F913F912F916B
:1005D0000F900FBE0F901F9018951F920F920FB69D
:1005E0000F9211242F938F939F93EF93FF93E0919A
:1005F000DB01F091DC018081E091E101F091E20109
:1006000082FD1BC090818091E4018F5F8F732091E8
:10061000E501821741F0E091E401F0E0E553FE4F7F
:10062000958F8093E401FF91EF919F918F912F918E
:100630000F900FBE0F901F9018958081F4CF1F92DE
:100640000F920FB60F9211242F933F938F939F9386
:10065000AF93BF938091BF019091C001A091C10160
:10066000B091C2013091BE0123E0230F2D3758F520
:100670000196A11DB11D2093BE018093BF019093EF
:10068000C001A093C101B093C2018091BA019091C1
:10069000BB01A091BC01B091BD010196A11DB11D8E
:1006A0008093BA019093BB01A093BC01B093BD01AC
:1006B000BF91AF919F918F913F912F910F900FBE5E
:1006C0000F901F90189526E8230F0296A11DB11DCB
:1006D000D2CF1F920F920FB60F9211242F933F93F8
:1006E0004F935F936F937F938F939F93AF93BF933A
:1006F000EF93FF938091B900887F803609F44AC058
:10070000F0F5883209F4A7C018F5803109F49BC0D0
:10071000B8F4882309F4F9C0883009F494C0FF9133
:10072000EF91BF91AF919F918F917F916F915F9169
:100730004F913F912F910F900FBE0F901F901895E2
:10074000883109F488C0803251F78093930114C036
:10075000803409F49DC040F48033B9F38833F9F64E
:100760008093930185ECB0C0803509F485C088354D
:1007700009F496C0883499F60E947002D0CF883967
:1007800009F48CC038F5883729F050F4883611F018
:10079000803729F683E0809394011092920157C02C
:1007A000883809F47BC0803919F0803809F0B7CF58
:1007B00080919201803208F071C0E091920181E055
:1007C0008E0F809392018091BB00F0E0EE58FE4FB7
:1007D00080833DC0803B39F0E0F4803A09F479C071
:1007E000883A09F09CCF84E08093940110927101C3
:1007F00010927001E091C501F091C60109958091B8
:10080000700181110FC081E080937001109250013E
:1008100009C0803C09F4A6CF883C09F4A3CF883BEB
:1008200009F07DCFE091710181E08E0F809371011D
:10083000F0E0E05BFE4F80818093BB0090917101FE
:100840008091700129C08091B9018093BB0085EC33
:100850008093BC0064CF9091B8018091B701981744
:1008600058F5E091B80181E08E0F8093B801F0E077
:10087000E956FE4F8081E9CFE091B80181E08E0F0B
:100880008093B8018091BB00F0E0E956FE4F808371
:100890009091B8018091B7019817C8F285E8D8CF38
:1008A000E091B80181E08E0F8093B8018091BB0088
:1008B000F0E0E956FE4F80838091960181115CCF74
:1008C00081E08093950184EA8093BC0010929401AA
:1008D00026CF85EC8093BC00109294018091920108
:1008E000803230F4E0919201F0E0EE58FE4F108239
:1008F0006091920170E0E091C301F091C40182E740
:1009000091E00995109292010ACF1092930134CF91
:100910001092CE011092CD0188EE93E0A0E0B0E0FD
:100920008093CF019093D001A093D101B093D201D5
:100930008AE091E09093CC018093CB0185EC90E02C
:100940009093D8018093D70184EC90E09093DA01E2
:100950008093D90180EC90E09093DC018093DB01DF
:1009600081EC90E09093DE018093DD0182EC90E0D9
:100970009093E0018093DF0186EC90E09093E20198
:100980008093E1011092E4011092E5011092E601DA
:100990001092E7018BE98093680288E080936B02F4
:1009A00080E091E090936A02809369020E9426069B
:1009B00090936D0280936C0230E020E08091690298
:1009C00090916A0228173907E0F4C9016091680222
:1009D00070E048E050E0FC01E078FF27880F991FA5
:1009E000EF2B11F08627972741505109A1F7E0918D
:1009F0006C02F0916D02E20FF31F80832F5F3F4F77
:100A0000DDCF109271021092700288EE93E0A0E0A8
:100A1000B0E08093720290937302A0937402B0933B
:100A200075028CE191E090936F0280936E028EE7E5
:100A300080937604109277041092780410927904CF
:100A400010927A0481E880937B0410927C041092C7
:100A50007D0410927F0410927E0410928104109203
:100A600080041092820410928504109286041092E1
:100A70008704109288041092890410928A041092BC
:100A80008B0410928C0410928D0410928E0410929C
:100A90009304109294040895789484B5826084BD80
:100AA00084B5816084BD85B5826085BD85B5816072
:100AB00085BD80916E00816080936E0010928100F0
:100AC00080918100826080938100809181008160AB
:100AD000809381008091800081608093800080916C
:100AE000B10084608093B1008091B00081608093F8
:100AF000B00080917A00846080937A0080917A00BF
:100B0000826080937A0080917A00816080937A007D
:100B100080917A00806880937A001092C100EAEA9E
:100B2000F0E02491E6E9F0E08491882399F090E0E8
:100B3000880F991FFC01EA57FF4FA591B491FC0162
:100B4000E458FF4F859194918FB7F894EC91E22B84
:100B5000EC938FBFE9EAF0E02491E5E9F0E08491BD
:100B60008823C1F090E0880F991FFC01EA57FF4FDE
:100B7000C591D491FC01E458FF4FA591B4919FB762
:100B8000F8943881822F809583238883EC91E22B1F
:100B9000EC939FBFE091DB01F091DC0182E0808368
:100BA000E091D701F091D8011082E091D901F09144
:100BB000DA0180E180831092E301E091DF01F0919E
:100BC000E00186E08083E091DD01F091DE0180812B
:100BD00080618083E091DD01F091DE018081886099
:100BE0008083E091DD01F091DE0180818068808367
:100BF000E091DD01F091DE0180818F7D8083109294
:100C0000CA011092C9011092C8011092C7010E9436
:100C1000090287E890E09093C6018093C50188E8B7
:100C200090E09093C4018093C301C0E0D0E020978E
:100C3000F1F30E94F3008823D1F30E940000F7CF64
:100C4000EE0FFF1F0590F491E02D09940F931F9371
:100C5000CF93DF938230910510F482E090E0E09131
:100C60009D04F0919E0430E020E0B0E0A0E03097D9
:100C700099F42115310509F44AC0281B390B243099
:100C80003105D8F58A819B816115710589F1FB01D8
:100C900093838283FE0111C04081518102811381BF
:100CA00048175907E0F04817590799F4109761F071
:100CB00012960C93129713961C933296CF01DF91E4
:100CC000CF911F910F91089500939D0410939E045E
:100CD000F4CF2115310551F04217530738F0A9011F
:100CE000DB019A01BD01DF01F801C1CFEF01F9CFAE
:100CF00090939E0480939D04CDCFFE01E20FF31FDD
:100D0000819391932250310939832883D7CF209141
:100D10009B0430919C04232B41F4209102013091DB
:100D2000030130939C0420939B0420910001309197
:100D300001012115310541F42DB73EB74091040161
:100D400050910501241B350BE0919B04F0919C040C
:100D5000E217F307A0F42E1B3F0B2817390778F092
:100D6000AC014E5F5F4F2417350748F04E0F5F1FF1
:100D700050939C0440939B04819391939FCFF0E008
:100D8000E0E09CCFCF93DF930097E9F0FC0132972E
:100D900013821282A0919D04B0919E04ED0130E077
:100DA00020E01097A1F420813181820F931F2091C0
:100DB0009B0430919C042817390709F061C0F09317
:100DC0009C04E0939B04DF91CF910895EA01CE1734
:100DD000DF07E8F54A815B819E0141155105B1F7B6
:100DE000E901FB83EA8349915991C40FD51FEC17A0
:100DF000FD0761F4808191810296840F951FE901BE
:100E000099838883828193819B838A83F0E0E0E0E9
:100E100012968D919C9113970097B9F52D913C9165
:100E20001197CD010296820F931F20919B04309160
:100E30009C042817390739F6309751F510929E0413
:100E400010929D04B0939C04A0939B04BCCFD383C9
:100E5000C28340815181840F951FC817D90761F45F
:100E60004E5F5F4F88819981480F591F518340839E
:100E70008A819B81938382832115310509F0B0CF4C
:100E8000F0939E04E0939D049ECFFD01DC01C0CF52
:100E900013821282D7CFF894FFCF00009F04800006
:100EA0000000000029018900B6007601E700C500B6
:100EB000D900000000005C0251026D0227024A02C4
:040EC00037022802CB
:107E0000112484B714BE81FFF0D085E080938100F7
:107E100082E08093C00088E18093C10086E0809377
:107E2000C20080E18093C4008EE0C9D0259A86E02C
:107E300020E33CEF91E0309385002093840096BBD3
:107E4000B09BFECF1D9AA8958150A9F7CC24DD24C4
:107E500088248394B5E0AB2EA1E19A2EF3E0BF2EE7
:107E6000A2D0813461F49FD0082FAFD0023811F036
:107E7000013811F484E001C083E08DD089C08234E0
:107E800011F484E103C0853419F485E0A6D080C0E4
:107E9000853579F488D0E82EFF2485D0082F10E0AE
:107EA000102F00270E291F29000F111F8ED06801E7
:107EB0006FC0863521F484E090D080E0DECF843638
:107EC00009F040C070D06FD0082F6DD080E0C81688
:107ED00080E7D80618F4F601B7BEE895C0E0D1E017
:107EE00062D089930C17E1F7F0E0CF16F0E7DF06D8
:107EF00018F0F601B7BEE89568D007B600FCFDCFD4
:107F0000A601A0E0B1E02C9130E011968C91119780
:107F100090E0982F8827822B932B1296FA010C0160
:107F200087BEE89511244E5F5F4FF1E0A038BF0790
:107F300051F7F601A7BEE89507B600FCFDCF97BE46
:107F4000E89526C08437B1F42ED02DD0F82E2BD052
:107F50003CD0F601EF2C8F010F5F1F4F84911BD097
:107F6000EA94F801C1F70894C11CD11CFA94CF0C13
:107F7000D11C0EC0853739F428D08EE10CD085E9AC
:107F80000AD08FE07ACF813511F488E018D01DD067
:107F900080E101D065CF982F8091C00085FFFCCF94
:107FA0009093C60008958091C00087FFFCCF809118
:107FB000C00084FD01C0A8958091C6000895E0E648
:107FC000F0E098E1908380830895EDDF803219F02E
:107FD00088E0F5DFFFCF84E1DECF1F93182FE3DFCA
:107FE0001150E9F7F2DF1F91089580E0E8DFEE27F6
:047FF000FF270994CA
:027FFE00040479
:00000001FF
